{
  "_format": "hh-sol-artifact-1",
  "contractName": "Donator",
  "sourceName": "contracts/Donator.sol",
  "abi": [
    {
      "inputs": [],
      "stateMutability": "nonpayable",
      "type": "constructor"
    },
    {
      "inputs": [],
      "name": "NotEnoughEther",
      "type": "error"
    },
    {
      "inputs": [],
      "name": "Unauthorized",
      "type": "error"
    },
    {
      "anonymous": false,
      "inputs": [
        {
          "indexed": false,
          "internalType": "address",
          "name": "_who",
          "type": "address"
        }
      ],
      "name": "FullRefund",
      "type": "event"
    },
    {
      "anonymous": false,
      "inputs": [
        {
          "indexed": false,
          "internalType": "address",
          "name": "_from",
          "type": "address"
        },
        {
          "indexed": false,
          "internalType": "uint256",
          "name": "_amount",
          "type": "uint256"
        }
      ],
      "name": "NewDonate",
      "type": "event"
    },
    {
      "anonymous": false,
      "inputs": [
        {
          "indexed": false,
          "internalType": "address",
          "name": "_to",
          "type": "address"
        },
        {
          "indexed": false,
          "internalType": "uint256",
          "name": "_amount",
          "type": "uint256"
        }
      ],
      "name": "NewTransfer",
      "type": "event"
    },
    {
      "stateMutability": "payable",
      "type": "fallback"
    },
    {
      "inputs": [
        {
          "internalType": "address",
          "name": "_newOwner",
          "type": "address"
        }
      ],
      "name": "changeOwner",
      "outputs": [],
      "stateMutability": "nonpayable",
      "type": "function"
    },
    {
      "inputs": [
        {
          "internalType": "address",
          "name": "",
          "type": "address"
        }
      ],
      "name": "contributors",
      "outputs": [
        {
          "internalType": "uint256",
          "name": "",
          "type": "uint256"
        }
      ],
      "stateMutability": "view",
      "type": "function"
    },
    {
      "inputs": [],
      "name": "donate",
      "outputs": [],
      "stateMutability": "payable",
      "type": "function"
    },
    {
      "inputs": [
        {
          "internalType": "uint256",
          "name": "",
          "type": "uint256"
        }
      ],
      "name": "donaters",
      "outputs": [
        {
          "internalType": "address",
          "name": "",
          "type": "address"
        }
      ],
      "stateMutability": "view",
      "type": "function"
    },
    {
      "inputs": [],
      "name": "getBalance",
      "outputs": [
        {
          "internalType": "uint256",
          "name": "",
          "type": "uint256"
        }
      ],
      "stateMutability": "view",
      "type": "function"
    },
    {
      "inputs": [
        {
          "internalType": "address",
          "name": "_of",
          "type": "address"
        }
      ],
      "name": "getSumOfDonater",
      "outputs": [
        {
          "internalType": "uint256",
          "name": "",
          "type": "uint256"
        }
      ],
      "stateMutability": "view",
      "type": "function"
    },
    {
      "inputs": [],
      "name": "owner",
      "outputs": [
        {
          "internalType": "address payable",
          "name": "",
          "type": "address"
        }
      ],
      "stateMutability": "view",
      "type": "function"
    },
    {
      "inputs": [
        {
          "internalType": "address payable",
          "name": "_to",
          "type": "address"
        },
        {
          "internalType": "uint256",
          "name": "_amount",
          "type": "uint256"
        }
      ],
      "name": "withdraw",
      "outputs": [],
      "stateMutability": "nonpayable",
      "type": "function"
    },
    {
      "stateMutability": "payable",
      "type": "receive"
    }
  ],
  "bytecode": "0x6080604052600c60035534801561001557600080fd5b50336000806101000a81548173ffffffffffffffffffffffffffffffffffffffff021916908373ffffffffffffffffffffffffffffffffffffffff160217905550670de0b6b3a76400006001600073cca210e7c05322379f801a07f320e863efe68f8073ffffffffffffffffffffffffffffffffffffffff1673ffffffffffffffffffffffffffffffffffffffff16815260200190815260200160002060008282546100c19190610106565b9250508190555061015c565b6000819050919050565b7f4e487b7100000000000000000000000000000000000000000000000000000000600052601160045260246000fd5b6000610111826100cd565b915061011c836100cd565b9250827fffffffffffffffffffffffffffffffffffffffffffffffffffffffffffffffff03821115610151576101506100d7565b5b828201905092915050565b6108e18061016b6000396000f3fe60806040526004361061007f5760003560e01c8063a6f9dae11161004e578063a6f9dae114610158578063e9a8494214610181578063ed88c68e146101be578063f3fef3a3146101c857610086565b806312065fe0146100885780631f6d4942146100b35780638da5cb5b146100f05780639b7619941461011b57610086565b3661008657005b005b34801561009457600080fd5b5061009d6101f1565b6040516100aa919061059f565b60405180910390f35b3480156100bf57600080fd5b506100da60048036038101906100d5919061061d565b6101f9565b6040516100e7919061059f565b60405180910390f35b3480156100fc57600080fd5b50610105610211565b604051610112919061066b565b60405180910390f35b34801561012757600080fd5b50610142600480360381019061013d919061061d565b610235565b60405161014f919061059f565b60405180910390f35b34801561016457600080fd5b5061017f600480360381019061017a919061061d565b61027e565b005b34801561018d57600080fd5b506101a860048036038101906101a391906106b2565b610348565b6040516101b591906106ee565b60405180910390f35b6101c6610387565b005b3480156101d457600080fd5b506101ef60048036038101906101ea9190610735565b61047b565b005b600047905090565b60016020528060005260406000206000915090505481565b60008054906101000a900473ffffffffffffffffffffffffffffffffffffffff1681565b6000600160008373ffffffffffffffffffffffffffffffffffffffff1673ffffffffffffffffffffffffffffffffffffffff168152602001908152602001600020549050919050565b60008054906101000a900473ffffffffffffffffffffffffffffffffffffffff168073ffffffffffffffffffffffffffffffffffffffff163373ffffffffffffffffffffffffffffffffffffffff1614610304576040517f82b4290000000000000000000000000000000000000000000000000000000000815260040160405180910390fd5b816000806101000a81548173ffffffffffffffffffffffffffffffffffffffff021916908373ffffffffffffffffffffffffffffffffffffffff1602179055505050565b6002818154811061035857600080fd5b906000526020600020016000915054906101000a900473ffffffffffffffffffffffffffffffffffffffff1681565b34600160003373ffffffffffffffffffffffffffffffffffffffff1673ffffffffffffffffffffffffffffffffffffffff16815260200190815260200160002060008282546103d691906107a4565b925050819055506002339080600181540180825580915050600190039060005260206000200160009091909190916101000a81548173ffffffffffffffffffffffffffffffffffffffff021916908373ffffffffffffffffffffffffffffffffffffffff1602179055507fc182adafce4e88de09e4a13d92f300b9bfc024d2d63cf5420d967cc9065d2f1033346040516104719291906107fa565b60405180910390a1565b60008054906101000a900473ffffffffffffffffffffffffffffffffffffffff168073ffffffffffffffffffffffffffffffffffffffff163373ffffffffffffffffffffffffffffffffffffffff1614610501576040517f82b4290000000000000000000000000000000000000000000000000000000000815260040160405180910390fd5b8273ffffffffffffffffffffffffffffffffffffffff166108fc839081150290604051600060405180830381858888f19350505050158015610547573d6000803e3d6000fd5b507f0932785c76030b7c97ab762c906e0de0d48cdb6a112a3a90feb29a338abe1cb48383604051610579929190610882565b60405180910390a1505050565b6000819050919050565b61059981610586565b82525050565b60006020820190506105b46000830184610590565b92915050565b600080fd5b600073ffffffffffffffffffffffffffffffffffffffff82169050919050565b60006105ea826105bf565b9050919050565b6105fa816105df565b811461060557600080fd5b50565b600081359050610617816105f1565b92915050565b600060208284031215610633576106326105ba565b5b600061064184828501610608565b91505092915050565b6000610655826105bf565b9050919050565b6106658161064a565b82525050565b6000602082019050610680600083018461065c565b92915050565b61068f81610586565b811461069a57600080fd5b50565b6000813590506106ac81610686565b92915050565b6000602082840312156106c8576106c76105ba565b5b60006106d68482850161069d565b91505092915050565b6106e8816105df565b82525050565b600060208201905061070360008301846106df565b92915050565b6107128161064a565b811461071d57600080fd5b50565b60008135905061072f81610709565b92915050565b6000806040838503121561074c5761074b6105ba565b5b600061075a85828601610720565b925050602061076b8582860161069d565b9150509250929050565b7f4e487b7100000000000000000000000000000000000000000000000000000000600052601160045260246000fd5b60006107af82610586565b91506107ba83610586565b9250827fffffffffffffffffffffffffffffffffffffffffffffffffffffffffffffffff038211156107ef576107ee610775565b5b828201905092915050565b600060408201905061080f60008301856106df565b61081c6020830184610590565b9392505050565b6000819050919050565b600061084861084361083e846105bf565b610823565b6105bf565b9050919050565b600061085a8261082d565b9050919050565b600061086c8261084f565b9050919050565b61087c81610861565b82525050565b60006040820190506108976000830185610873565b6108a46020830184610590565b939250505056fea26469706673582212202a4b094c5dbe28c0420a8e66147ca57908913876a5947579a374e0716ebfbbe064736f6c634300080b0033",
  "linkReferences": {},
  "deployedLinkReferences": {}
}